:020000040800F2
:10000000680B002049020008573000088B2B0008BD
:1000100055300008CD0C0008B5360008000000007F
:10002000000000000000000000000000D1300008C7
:10003000210D00080000000059300008D3300008EE
:1000400063020008630200086302000863020008FC
:1000500063020008630200086302000863020008EC
:1000600063020008630200086302000863020008DC
:1000700063020008630200086302000863020008CC
:1000800063020008630200086302000863020008BC
:1000900063020008630200086302000863020008AC
:1000A000630200086302000863020008630200089C
:1000B0008D31000899310008A5310008630200085D
:1000C000630200086302000863020008630200087C
:1000D0006302000895360008630200086302000806
:1000E000630200086302000863020008630200085C
:1000F000BD310008630200086302000863020008C3
:10010000630200086302000863020008630200083B
:10011000630200086302000863020008B1310008AE
:100120006302000863020008D10C000863020008A3
:10013000630200086302000863020008630200080B
:1001400063020008630200086302000863020008FB
:100150006302000863020008DD0C00086302000867
:1001600063020008630200086302000863020008DB
:100170006302000863020008630200080000000038
:10018000630200086302000800F002F800F04CF877
:100190000AA090E8000C82448344AAF10107DA45E2
:1001A00001D100F041F8AFF2090EBAE80F0013F0E8
:1001B000010F18BFFB1A43F0010318477C480000E9
:1001C0009C480000103A24BF78C878C1FAD852077A
:1001D00024BF30C830C144BF04680C6070470000C1
:1001E0000023002400250026103A28BF78C1FBD840
:1001F000520728BF30C148BF0B607047662904F022
:100200009983642900F0F880002070471FB504F03E
:100210008CFB00F0D3FB04000020002104F090F9D7
:10022000E0601FBD10B510BD00F0E4FC1146FFF703
:10023000EDFF03F0C9FC00F002FD03B4FFF7F2FF8D
:1002400003BC03F03BFB0000094880470948004716
:10025000FEE7FEE7FEE7FEE7FEE7FEE7FEE7FEE776
:10026000FEE7FEE704480549054A064B70470000D3
:100270007D3100088901000868050020680B002016
:100280006807002068070020704753EA020C00F05E
:1002900069802DE9F04B4FF00006002B1FBFB3FA29
:1002A00083F503FA05F424FA05F65E4012BF1643FF
:1002B000B2FA82F502FA05F4C5F120051EBF22FA52
:1002C00005FC44EA0C04203556EA044C4FEA144479
:1002D00018BF641C4FF000084FF00009904271EB0A
:1002E000030C39D3002919BFB1FA81F701FA07F6D7
:1002F000B0FA80F700FA07F6C7F120071EBF20FA10
:1003000007FC46EA0C062037B6FBF4FCA7EB050712
:10031000103F07F01F0BCBF120062CFA06F60CFA63
:100320000BFB44BFB3460026202FA4BF5E464FF010
:10033000000B5BEA060C08BF4FF0010B19EB0B0931
:1003400048EB0608ABFB027C06FB02CC0BFB03CCA4
:10035000C01B71EB0C01C1E70B4602464146484603
:10036000BDE8F08B13B54FF000004FF00001AFF384
:100370000080BDE81C4070470FB4044910B503AAC3
:10038000029800F009FB10BC5DF814FB3803002054
:100390002DE9F0410E460446002020622046E16827
:1003A000884730B3252805D0D4E901219047206A39
:1003B000401CF2E7E168204600278847050018D076
:1003C000A5F14100192802D820354FF400673246C4
:1003D000294620462760FFF711FF40B1012804D0CD
:1003E000F61D26F007060836D8E7361DD6E728465C
:1003F000DAE7206ABDE8F0812DE9F04106460024E5
:1004000010687529314616A510D0AFF3008000287A
:1004100002DA404213A507E031688A0701D512A528
:1004200002E0490704D511A5012401E0AFF30080E3
:1004300000210A2206F1240709E0B0FBF2FCB0FB20
:10044000F2F302FB1C00303078541846491C002897
:10045000F3D123462A463046BDE8F04100F033B8D8
:10046000000000002D0000002B0000002000000014
:100470004FF0000200B5134694469646203922BF3D
:10048000A0E80C50A0E80C50B1F12001BFF4F7AF88
:10049000090728BFA0E80C5048BF0CC05DF804EB6A
:1004A000890028BF40F8042B08BF704748BF20F8D8
:1004B000022B11F0804F18BF00F8012B70477047D6
:1004C0007047704770472DE9F0470D4699469246B0
:1004D000044600F124080168880604D5E06921F08B
:1004E0001001216000E00120A84201DD471B00E06F
:1004F0000027A1697A1902EB0900081AA061207887
:10050000C00602D42046AFF30080002608E0D4E9FC
:1005100001211AF806009047206A401C761C2062D0
:100520004E45F4DB2078C0060AD52046AFF30080A4
:1005300006E0D4E9012130209047206A401C206267
:10054000381EA7F10107F4DC07E0D4E9012118F80F
:1005500005009047206A401C2062281EA5F1010575
:10056000F3DC2046AFF300802078000602D502209D
:10057000BDE8F0870120FBE770472DE9FF4F0C46EF
:100580001E464FF0FF378BB0D2E90001DDF86080E6
:100590000A908A46C1F30A5505B93D46002108462E
:1005A0004FF00000BAF1000F00F4400005DA00EB54
:1005B00080004FF4400101EA50004FEA9059B9F130
:1005C000010F00DDB9460A9850EA4A000ED044F601
:1005D0001050A5F2FF3545432F14B8F1000F1ED07F
:1005E0007542291E1EDDC9F100021CE0B8F1010FA1
:1005F0004FF0000001D0302103E0F24305E0215428
:10060000401CB042FBDB30460022002121540B99F4
:10061000C1F80880C1E900200FB0BDE8F08FBD1B14
:100620006D1CDEE74A4600DA694206A800F068FA67
:1006300006AB93E8070003AB83E8070050460A992E
:1006400003F09EFB8DE80700A0F500501F380090D6
:100650000398002D0ADD42F21F014A460844002398
:1006600003A90390684603F007FE09E0A0F50050D7
:100670004A461F38002303A90390684603F011FE81
:100680008DE807000004000C03D04FF0FF30410854
:1006900000E01046B8F1000F03D00022009215468A
:1006A0001EE0751E05D400F08DF9303262556D1EC6
:1006B000F9D5B3460122084302D000227F1C04E092
:1006C0002078302801D100227F1E002A099784D08B
:1006D0001DE0112D07DA00F075F9303262556D1CFE
:1006E00050EA0102F5D1084302D00098C8B10EE0EB
:1006F0000021681E05E0235C625C63542254401EA6
:10070000491C8142F7DBAB46A81B401E0990002024
:1007100004F80B000B98099AC0F80880C0E9002B78
:100720007AE711264FF0000857E72DE9F04F884689
:100730000446D21D22F0070191B0D1E90001CDE9B4
:100740000A0103F0E5FE02460B98C00F01D02D20F0
:1007500007E02068810701D52B2002E0202101EA73
:10076000C000032A099001D0072A05DB0346414651
:10077000204600F085F90BE12078800601D5E0697C
:1007800000E00620B8F1650F814606D0B8F1660F8B
:1007900018D0B8F1670F70D131E00020B9F1110F16
:1007A000009001DB112301E009F101030AAA01A96C
:1007B0000CA8FFF7E2FEDDE90C70002609F1010547
:1007C000834647E001204B4600904FF000470AAABD
:1007D00001A90CA8FFF7D1FEDDE90DB00C995D462B
:1007E000002610B909F101000D18B9EB050003D47A
:1007F000C0F1FF3609F10105A5EB09002BE0B9F1C5
:10080000010F01DA4FF001090020B9F1110F00903A
:10081000484601DD112300E003460AAA01A90CA8FD
:10082000FFF7ABFEDDE90C704D46002683462078CD
:1008300000070AD4AB4500DA5D4601A8012D04DDAE
:10084000411911F8011C302907D04F4502DA17F180
:10085000040F04DA012082460FE06D1EEEE7002F40
:1008600002DCED1B3E4403E0781CA84200DD7D1C49
:10087000B81B00F1010A4FF000472078000703D4AD
:10088000AA4501DB4FF0FF3A0021B7F1004F0DF10F
:1008900043088DF8431024D002202B23002F01DAC7
:1008A0007F422D230A21021EA0F1010000DC5FB16E
:1008B00097FBF1FC97FBF1F201FB1C7C17460CF156
:1008C000300C08F801CDEEE7A8F101000370218893
:1008D000090501D5452100E06521A0F1010800F8D6
:1008E000011C09980FA9A1EB0807FF1D00B1012009
:1008F000411901EBEA70A1693844081A401EA06151
:100900002078C00602D42046AFF30080099828B1B1
:10091000D4E901219047206A401C20622078C0065B
:1009200022D52046AFF300801EE0002E04DBB34545
:1009300002DD01A8805D00E03020D4E9012190476C
:10094000206A401C2062761CAAF101005FEA000ABE
:100950000AD100F033F8C0680168405CD4E9012195
:100960009047206A401C2062281EA5F10105DCDCAE
:1009700007E0D4E9012118F8010B9047206A401CD8
:100980002062381EA7F10107F3DC2046AFF3008098
:10099000032011B041E60000074B70B50D467B44C3
:1009A00000F05BF80446284600F01CF910B14FF047
:1009B000FF3070BD204670BD2B2F000000487047EF
:1009C0004000002030B5B0F10A0271F100034FEA97
:1009D000900E4EEA817EB0EB0E0061EB91014FEA82
:1009E000101E4EEA017E10EB0E0041EB11114FEA92
:1009F000102E4EEA016E10EB0E0041EB11214FEA72
:100A0000104E4EEA014E10EB0E0041EB1141401822
:100A100041F100014FEAD00040EA41704FEAD101B4
:100A20004FEA810444EA907410EB800544EB010422
:100A30006D1944EB0404521BA3414FF0000348BF5F
:100A40000A3200D530BD401C41F1000130BD00002C
:100A500001694A1C02610878704700B58FB0CDE982
:100A600001310021059105497944CDE90310114672
:100A70006846FFF78DFC0FB000BD0000E5FFFFFFEB
:100A80002DE9F0411F46044603260168072A01F4B8
:100A9000006004DB08B116A505E016A503E008B167
:100AA00015A500E015A521F010002060A069C01E6A
:100AB000A0610FB1401EA0612046AFF300804FB18E
:100AC000D4E9012138469047206A401C2062C01CAE
:100AD000206206E0206AFAE7D4E9012115F8010B4B
:100AE0009047761EF8D22046AFF30080BDE8F08133
:100AF0004E414E006E616E00494E4600696E6600C2
:100B00002DE9F047814616468AB0354878440DC82D
:100B10008DE80D0032487844801C03AC0DC884E891
:100B20000D0041F69B300844372190FBF1F290FB19
:100B3000F1F5A5F1800501FB12041B3C02D56442CE
:100B4000012000E00020DFF898A080460027FA444A
:100B5000AAF1BE0A0EE0E0070AD03246684607EB6B
:100B6000470101230AEB810103F09BFB8DE807009D
:100B700064107F1C002CEED1194F7F44AE3F19E06A
:100B8000E80715D007EB04100DF1180A90E80E00E5
:100B90008AE80E00C068F04201D1981908903246E8
:100BA000012306A903A803F07CFB03AB83E807003D
:100BB0006D10641C002DE3D14FF0010332466946ED
:100BC000B8F1000F03A802D003F056FB01E003F0D8
:100BD00068FBC9E90001C9F808200AB0BDE8F08740
:100BE000A43E0000007B00F0800070470048704782
:100BF000200000207546FFF7F9FFAE460500694664
:100C0000534620F00700854618B020B5FFF72AFBB1
:100C1000BDE820404FF000064FF000074FF00008FD
:100C20004FF0000BAC46ACE8C009ACE8C009ACE83A
:100C3000C009ACE8C00921F007018D46704710B526
:100C40000446AFF300802046BDE81040FFF7F5BA38
:100C500030B44FF0013C50F8042B51F8043BCCFA6F
:100C600052F4D51A20D1FCB950F8042B51F8043BAA
:100C7000CCFA52F4D51A17D1B4B950F8042B51F864
:100C8000043BCCFA52F4D51A0ED16CB950F8042BAF
:100C900051F8043BCCFA52F4D51A05D1002CDAD025
:100CA00030BC4FF00000704729BAB1FA81F111F061
:100CB0001801D1F120008440F2D1CA40CB4012F09B
:100CC000FF0213F0FF0330BCD01A7047FEE70000AC
:100CD000014800F07DB800BFC0010020014800F0CD
:100CE00077B800BFF000002001686FF00F021823F2
:100CF00052FA81F2B2FBF3FC07A35F2A13F80CC08F
:100D000040F2FF3321EA030188BF41F00401C0E94A
:100D1000161C0846704700BF000610160006101685
:100D2000704772B6FEE770B50446A66D00F078FA1B
:100D3000054694F83500022829D12068016821F081
:100D400016010160416921F080014161216C09B9FE
:100D5000A16C19B1016821F008010160016821F05E
:100D60000101016005E000F05BFA401B052812D884
:100D70002068006810F0010FF5D1E06D3F2101FA05
:100D800000F0B060012084F83500002008E08020E9
:100D90006065012004E020206065032084F83500B0
:100DA0000021C0B284F8341070BD90F835100229CB
:100DB0001FBF8021416501207047052180F8351053
:100DC0000068016821F00101016000207047000007
:100DD000F8B504460020082100905C480568D4E975
:100DE00016603768814039420DD02268136813F0CD
:100DF000040F08D0136823F004031360B160616D21
:100E000041F00101616501218140394209D0226828
:100E1000526912F0800F1FBFB160616D41F0020195
:100E2000616504218140394209D02268126812F0BC
:100E3000020F1FBFB160616D41F0040161651021B7
:100E40008140394219D02068026812F0080F14D08E
:100E5000B1600268016812F4802F06D1C9055EBF37
:100E6000016821F00801016001E0080301D4216C50
:100E700000E0A16C09B120468847E16D202000FA0E
:100E800001F23A423CD02068036813F0100F37D0CB
:100E9000B26094F835300268052B19D122F01602A1
:100EA0000260426922F080024261226C0AB9A26C9F
:100EB0001AB1026822F0080202603F208840B06048
:100EC000012084F83500002084F83400216D39E0D9
:100ED000016852030CD4C9050ED4016821F0100139
:100EE0000160012084F83500002084F8340003E01C
:100EF000080301D4616C00E0E16B09B1204688472A
:100F0000606D10B3606D10F0010F1AD005214FF421
:100F1000165084F83510B5FBF0F021680A6822F00D
:100F200001020A60009A01328242009203D80A68E4
:100F300012F0010FF6D1012084F83500002084F86A
:100F40003400E16C09B120468847F8BD100000204C
:100F50002DE9F041044600F063F90546002C4DD020
:100F6000022084F83500002084F8340020680168ED
:100F700021F00101016005E000F052F9401B052855
:100F80003ED82068016811F0010FF5D101683A4A96
:100F9000D4E9013504F10C0801EA020C98E8C20119
:100FA000D4E9072E43EA0C032B4319433143394359
:100FB00041EA08011143626A41EA0E03042A23D17F
:100FC000D4E90B1719433943016050F8141FD4E9D1
:100FD0000A5E21F00701BEF1000F41EA020145EA75
:100FE000010C18D0B8F5005F26D0B8F1000F38D149
:100FF000022D39D0012D2ED0B5B30CE0012218E01E
:1010000003232021032222E0036050F8141F21F063
:10101000070141EA020CC0F800C02046FFF764FE59
:10102000E16D3F22012302FA01F1002281600021DB
:101030000DE0D0B2BDE8F081032DECD801234021B2
:1010400002EB85060122DFE805F0020F020661656A
:1010500084F83530EDE7AEF1C071B1FA81F149099C
:1010600004E0032D04D3D6D1CEF300610029D2D001
:10107000012340210122EAE73F8010F02DE9FC4FD7
:101080005B4A08274FF0010E4FF0030A4FF0000BA8
:101090004FF00008904208BF0727564A02444FEA23
:1010A000B223072B38BF4FEAB22700970027102F33
:1010B00008BFBDE8FC8F0A680EFA07F4224200F070
:1010C00090804B6803F00302551E012D15D8D0F80F
:1010D00008C00AFA08F52CEA050CCD6805FA08F5EF
:1010E00045EA0C058560C3F3001505FA07FC456861
:1010F000A54345EA0C05456001E0032A1DD0C668FA
:101100000AFA08F5022A26EA05068D6805FA08F5A6
:1011100046EA0506C66010D1374D0BF01C020F23BE
:10112000934005EA57060644356A25EA03030D692C
:1011300005FA02F21A4332624B68056803F00302B3
:101140000AFA08F613F4403F02FA08F225EA060606
:1011500042EA0602026044D000220192274A136844
:1011600043F480431360126802F48042019227F036
:101170000302234B019E234D0BF00C0602EB0309E7
:101180000F2259F805C002FA06FE009A2CEA0E0C4E
:1011900002FA06F64FF0010E46EA0C0649F8056021
:1011A0009A684E68A24316F4801F18BF224316F4B3
:1011B000001F9A60144A156825EA040518BF2543E4
:1011C00016F4003F15605A6822EA040218BF224351
:1011D00016F4803F5A601A6822EA040218BF2243BC
:1011E0001A600BF1040B08F1020801375FE700BF3A
:1011F000001C02400000FEBFFCFFFF7F443802409D
:10120000003C014008FCFFFF0C3C01400069084025
:1012100018BF01207047002A08BF09048161704788
:101220001F488068704700BF1D48017882681144DC
:101230008160704780B50B48016841F4007101601E
:10124000016841F480610160016841F480710160CE
:10125000032000F07FF8032000F006F800F022F8E9
:10126000002080BD003C024070B50D4E04464FF496
:101270007A713078B1FBF0F0E2490968B1FBF0F027
:1012800000F02EFC01250F2C08D838B94FF0FF30A4
:1012900021460022002500F031F87460284670BD18
:1012A0000400002082B0002001900C494A6842F4FA
:1012B00080424A604A6802F480420192019A00909A
:1012C000086840F080500860086800F08050009086
:1012D0000098052002B000F03DB800BF4038024041
:1012E000002808DB00F01F010122400902FA01F189
:1012F000014A42F82010704700E100E0B0B5144CFC
:101300001A4D00F00F03B0F1FF3FA3F104032B448B
:1013100003F10C03C8BF03192868C0F30220051DA0
:10132000C41E80F00700072D4FF0010538BF0024D0
:10133000042828BF042005FA00F00138084005FA07
:1013400004F10F31A0401140084300011870B0BDF6
:1013500000E400E005494FF6FF030A681A4060F315
:101360000A22034810430860704700BF0CED00E0FC
:101370000000FA052DE9F8438046D8F80000484FF0
:10138000A14E10F0050F2CD0464C0020B146206035
:10139000FFF746FF05464FF4E436B85910F0006FEA
:1013A00005D0FFF73DFF401B0228F6D937E0D8E90A
:1013B00001014E46090741EA8010F06701202060D4
:1013C000FFF72EFF05464FF4E434385910F0006F54
:1013D00005D1FFF725FF401B0228F6D91FE0D8F8FA
:1013E000000080074FF000001AD50090B06B40F06D
:1013F0008050B063B06B00F0805000900098386867
:1014000040F480703860FFF70BFF0546386810F431
:10141000807F09D1FFF704FF401B0228F6D9032083
:10142000C0B201B0BDE8F083B06E10F4407022D0BD
:10143000D8F80C1001F4407188421CD0B06E1A49E3
:1014400001220A60002220F440700A60B066B06E8B
:1014500010F0010F0FD0FFF7E3FE054641F288348C
:10146000B06E10F0020F06D1FFF7DAFE411B032029
:10147000A142F5D9D4E7D8F80C000C49326800F441
:101480004073014022F4F8126FF31F30B3F5407F30
:1014900008BF0A433260B16E0843B0660020BFE760
:1014A0000070004068004742400E4742FFFCFF0FBB
:1014B0002DE9F04104468846002C00F08480444F1A
:1014C000D7F8000400F00700404507D287F80084F1
:1014D000D7F8000400F00700404574D1206810F0F0
:1014E000020F11D0410742BFB96841F4E051B96021
:1014F000010742BFB96841F46041B960B968A268A8
:1015000021F0F0011143B960C0072BD06068811E43
:10151000022904D2396811F0007F0BD153E0012871
:1015200004D1396811F4003F04D14CE0396811F05E
:10153000020F48D0B96821F003010843B860FFF7F3
:101540006FFE064641F28835B868616800F00C000D
:10155000B0EB810F06D0FFF763FE801BA842F3D9E2
:10156000032031E0D7F8000400F00700404507D918
:1015700087F80084D7F8000400F00700404522D126
:10158000206810F0040F05D0B968E26821F4E0513A
:101590001143B960000706D5B868216920F460409E
:1015A00040EAC100B86000F033F8B968094AC1F3F5
:1015B0000311515CC8401349086007480068FFF7F1
:1015C00053FE002000E00120C0B2BDE8F08100BF62
:1015D00000380240CC4900080800002009480B4AA6
:1015E000006809490968C1F38221515CC84070470D
:1015F0000448064A006804490968C1F34231515C55
:10160000C84070471000002008380240DC4900083C
:1016100010B5F04C606800F00C011248082904D0A5
:10162000042904BF104810BD10BD226820680E496F
:10163000002310F4800F02F03F0204BF42F2004189
:10164000C0F2F4012068C0F38810A1FB0001FEF78E
:101650001CFE21680222C1F3014102EB4101B0FBF3
:10166000F1F010BD0024F40040787D012DE9F84F21
:101670008246BAF1000F00F064819AF80000D44E5F
:10168000D44FC0074AD0786800F00C00042807D176
:10169000306810F4003F41D0DAF80400F0BB50E1AC
:1016A000786800F00C00082803D1386810F4800F27
:1016B000EED1DAF80480B8F5803F06D03068B8F58E
:1016C000A02F13D140F480203060306840F4803087
:1016D0003060FFF7A5FD0546306810F4003F1DD1CE
:1016E000FFF79EFD401B6428F6D9C3E020F480304C
:1016F0003060306820F480203060FFF791FD0546AF
:10170000B8F1000FE8D1306810F4003F06D0FFF7C1
:1017100087FD411B03206429F5D913E19AF80000E5
:10172000AD4C800731D5786810F00C0F1CD078686C
:1017300000F00C00082804BF386810F4800F13D0A4
:10174000DAF80C00002800F0978001202060FFF7F5
:1017500067FD0546306810F0020F0ED1FFF760FDFF
:10176000401B0228F6D985E0306810F0020F1CBF3C
:10177000DAF80C00012840F0E4803068DAF8101044
:1017800020F0F80040EAC10030609AF8000000073D
:1017900022D5DAF8140078B10120C4F8800EFFF7E2
:1017A0003FFD0546386F10F0020F15D1FFF738FDE9
:1017B000401B0228F6D95DE00020C4F8800EFFF738
:1017C0002FFD0546386F10F0020F05D0FFF728FDFA
:1017D000401B0228F6D94DE09AF80000A3464007C6
:1017E0007CD5F86B4FF0000810F0805F0CD1CDF87D
:1017F00000804FF00108F86B40F08050F863F86B00
:1018000000F08050009000987448305810F4807FA9
:1018100012D17248315841F480713150FFF700FD08
:1018200005466E48305810F4807F05D1FFF7F8FC6C
:10183000401B0228F5D91DE0DAF80890B9F1010F34
:1018400006D0F86EB9F1050F27D140F00400F86614
:10185000F86E40F00100F866FFF7E2FC054641F241
:101860008834F86E10F0020F31D1FFF7D9FC401B1D
:10187000A042F6D9032065E000202060FFF7D0FCED
:101880000546306810F0020F3FF47FAFFFF7C8FC49
:10189000411B03200229F4D954E020F00100F8662E
:1018A000F86E20F00400F866FFF7BAFC0546B9F1BF
:1018B000000FD4D141F28839F86E10F0020F06D033
:1018C000FFF7AEFC411B03204945F5D93AE0B8F1DA
:1018D000010F02BFF86B20F08050F863DAF818406F
:1018E000002C72D0786800F00C0008282ED1012C52
:1018F00027D03868DAF81C1000F480028A4220D120
:10190000DAF8201000F03F028A421AD1DAF82420D7
:1019100047F6C0710140B1EB821F12D1DAF82810EE
:101920004FF6FF72C903914300F44032A1F58031B4
:101930008A4206D1DAF82C1000F07060B0EB016F2B
:1019400043D00120C0B201B0BDE8F08F0020CBF839
:101950006000FFF765FC0546022C0BD15C46306841
:1019600010F0007F11D0FFF75BFC411B0320022920
:10197000F5D9E7E7306810F0007F26D0FFF750FC7C
:10198000411B03200229F5D9DCE70AF11C052FCD04
:101990000843D90340EA82104FF6FF72914340EAB0
:1019A0000560A1F580310843386001202066FFF70B
:1019B00037FC0446306810F0007F06D1FFF730FC9A
:1019C000011B03200229F5D9BCE70020BAE700BFBC
:1019D0000038024004380240000047420038FEFF51
:1019E00010B504468CB3607F20B9002020772046D4
:1019F00000F03EF8022060772068C16811F0100FF7
:101A000030D1CA21416253214162204601F025FBB9
:101A1000B8B920688168154A114081606168D4E9CD
:101A2000042311438268194311438160E168016115
:101A3000A168026942EA01410161204601F033FBDD
:101A400028B12168FF224A6210BD012010BD206824
:101A5000016C21F480210164A169026C11430164CD
:101A6000FF21416201206077002010BDBFFF8FFF82
:101A7000F8B50021CDE90211CDE90011006809494E
:101A8000884218BF8FBD022000904FF40070039071
:101A90006846FFF76FFC08B1FFF743F902480121E0
:101AA00001608FBD002800403C0E4742B0B504469F
:101AB00020680A49C160FFF7B3FB05462068C0688B
:101AC00010F0200F07D1FFF7ABFB401BB0F57A7F7A
:101AD000F4D9032000E00020C0B2B0BD5F7F010058
:101AE000411E0020B0EB116F1CBF01207047044A5B
:101AF000F023516003490B7007219060116070471B
:101B000010E000E023ED00E07047704790F83C20C3
:101B1000012A01D102211FE0B0B501F10805D1E988
:101B200000CE3CCDC96923F47C5322F470521A4391
:101B30002EF4F0431A432CF4E0431A4324F4C04338
:101B40001A432A4322F4804211430268516400215F
:101B500080F83C10BDE8B040C8B2704790F83C3007
:101B60000222012B35D010B5012380F83C3080F8DB
:101B70003D200268D2F804E0D2F808C00C68B2F147
:101B8000804F2EF0700343EA04035360BDE8104019
:101B900014D0584B9A421CBF574B9A420ED0574B09
:101BA0009A421CBF564B9A4208D0564B9A421CBFD1
:101BB000554B9A4202D0554B9A4204D149682CF0B9
:101BC0008003194391600121002280F83D1080F8C4
:101BD0003C20D0B2704700BF10B5044634B394F82F
:101BE0003D0028B9002084F83C00204600F020F891
:101BF0000220211D84F83D00206801F0E5FA012053
:101C000084F8460084F83E0084F83F0084F84000E1
:101C100084F8410084F8420084F8430084F84400CA
:101C200084F8450084F83D00002010BD012010BD5F
:101C3000E0B501681448154A91420FD0314A9142EB
:101C400018BF8CBD00210191416841F00101416044
:101C5000406800F00100019001988CBD0021002235
:101C60000091016841F0200101600021006800F04E
:101C70002000009000983720FFF740FB3720BDE898
:101C80008C40FFF72DBB00BF4038024000140040DD
:101C900090F83D1001291CBF01207047022180F8F7
:101CA0003D100068C168B0F1804F41F00101C16092
:101CB00014D0E14988421CBFE04988420ED00F4948
:101CC00088421CBF0E49884208D00E4988421CBF7A
:101CD0000D49884202D0D749884204D1816801F079
:101CE0000701062903D0016841F0010101600020CD
:101CF000704700BF0004004000080040000C004096
:101D00000018004000000140004001400004014074
:101D100010B50446022094F83C20012A70D001221C
:101D20004FF6777384F83C2084F83D002068826881
:101D30009A4382600A6812B3102A20D0202A18BF62
:101D4000302A1CD0402A21D0502A2BD0602A35D0EE
:101D5000B2F5005F3ED0B2F5805F4AD0702A51D113
:101D6000D1E90123C9681A4342EA0121826822F4B9
:101D70007F4211438160816841F0770138E08168DA
:101D800021F07701114341F0070131E04B68CA6847
:101D9000194601F04BFB2068816821F0770141F082
:101DA000470125E04B68CA68194601F03FFB2068EF
:101DB000816821F0770141F0570119E04B68CA684A
:101DC000194601F044FB2068816821F0770141F059
:101DD00067010DE0D1E90123C9681A4342EA0121F4
:101DE000826822F47F4211438160816841F480411E
:101DF00081600020012184F83D10002184F83C100E
:101E0000C0B210BD0120F5E72DE9F84F04460D469C
:101E1000002C4DD094F83D0028B9002084F83C00F7
:101E2000204600F049F8022044F2070284F83D0001
:101E30002068816891438160211D01F0C5F9206807
:101E40008168D0F818A0D0F820C0D5E9003ED5E9C7
:101E500002B7D5E90489D5E9062619432B6A4BEA6E
:101E600002224FF6FC4581604FF6FF71AA432AEA31
:101E700001013943114341EA062141EA081141EACF
:101E8000033181612CF0AA0141EA0E0141EA0911F6
:101E90000162012084F8460084F83E0084F83F0087
:101EA00084F8420084F8430084F83D00002000E0FC
:101EB000012001B0BDE8F08F10B586B0044601A83E
:101EC0001421FEF7D5FA22685948EF49594B9A4236
:101ED00031D0594B9A4257D0584B9A427BD0B2F1ED
:101EE000804F40F0A380002200920B6943F0010371
:101EF0000B610B6903F001030093009B00920B68D8
:101F000043F001030B60096801F0010100910099A1
:101F1000222101910221CDE9021203210491012124
:101F2000059101A9FFF7AAF81C2000210022FFF764
:101F3000E5F91C2078E0002200F5006000924B6972
:101F400043F002034B614B6903F002030093009BD3
:101F500000920B6843F004030B60096801F0040170
:101F600000910099C02101910221CDE902120321C3
:101F7000CDE9041101A9FFF781F82C2000210022EE
:101F8000FFF7BCF92C204FE0002200920B6943F0D0
:101F900002030B610B6903F002030093009B0092A4
:101FA0000B6843F001030B60096801F00101009127
:101FB0000099C02101910221CDE902120322CDE94D
:101FC000042101A9FFF75AF81D2000210022FFF784
:101FD00095F91D2028E0002200F5406000920B6971
:101FE00043F004030B610B6903F004030093009BAF
:101FF00000920B6843F008030B60096801F00801C8
:10200000009100994FF4405101910221CDE9021253
:102010000322CDE9042101A9FFF730F81E20002199
:102020000022FFF76BF91E20FFF75AF906B010BD2A
:10203000000002400004014000040040000800408D
:1020400010B590F83E4090F83F3090F842E090F89C
:1020500043C0012204290BD0F1B9012C08BFBEF105
:10206000010F58D1022180F83E1080F842103EE066
:10207000012B08BFBCF1010F4DD10221102380F8C4
:102080003F1080F843100068014651F8202F22F0DD
:1020900010020A60042233E0012C08BF012B3AD160
:1020A000BEF1010F08BFBCF1010F34D1022200299B
:1020B00080F83E2080F83F2080F8422080F84320BE
:1020C00015D0006804220223016A21F00101016297
:1020D000016A41F001010162016A21F0100101620F
:1020E000016A41F01001016200F10C0108E0006892
:1020F0000123014651F8202F22F001020A6002223A
:102100000C6823430B60C16811430022C160016861
:1021100041F001010160104610BD7047B0B50446A2
:102120002068C168026901EA0205A90714D56FF0A9
:102130000201016101212177806910F0030F03D0B2
:102140002046FFF7EAFF05E0204600F09FF8204612
:1021500000F018F900202077680715D520686FF087
:102160000401016102212177806910F4407F03D0CE
:102170002046FFF7D2FF05E0204600F087F8204612
:1021800000F000F900202077280715D520686FF0AF
:102190000801016104212177C06910F0030F03D009
:1021A0002046FFF7BAFF05E0204600F06FF8204612
:1021B00000F0E8F800202077E80615D520686FF0D9
:1021C0001001016108212177C06910F4407F03D01C
:1021D0002046FFF7A2FF05E0204600F057F8204612
:1021E00000F0D0F800202077E80706D020686FF0D4
:1021F00001010161204600F043F9280606D5206858
:102200006FF0800101612046FFF77EFC680606D56D
:1022100020686FF040010161204600F09BFAA8069B
:1022200058BFB0BD20686FF0200101612046BDE8B5
:10223000B040FFF76ABC000010B586B0044601A8A4
:102240001421FEF715F921688A48814219D100212D
:1022500000F5883000910C490A6842F010020A60CB
:10226000096801F01001009100994FF4D4410191E7
:102270000221CDE9021104910121059101A9FEF786
:10228000FDFE06B010BD00BF3038024070470000B0
:10229000B0B504460D4694F83C00012801D1022057
:1022A00041E04FEAB2010120032984F83C0037D80D
:1022B000DFE801F0020A12222068294600F0F4FF4C
:1022C000206850F8181F0EE02068294601F01CF81D
:1022D000206850F8181F16E02068294601F04AF8D7
:1022E000206850F81C1F41F008010160016821F0CE
:1022F0000401016029690FE02068294601F06EF8A9
:10230000206850F81C1F41F400610160016821F44D
:10231000806101602969090202681143016000209F
:10232000002184F83C10C0B2B0BD10B5044634B3EF
:1023300094F83D0028B9002084F83C00204600F0C5
:1023400020F80220211D84F83D00206800F03CFFA9
:10235000012084F8460084F83E0084F83F0084F8A9
:10236000400084F8410084F8420084F8430084F877
:10237000440084F8450084F83D00002010BD012091
:1023800010BD70477047000039B10322082908BF0B
:102390000222042908BF012200E00022024492F830
:1023A0003E20012A1CBF01207047022241B10829AA
:1023B00009D0042914BF80F8412080F83F2004E0B0
:1023C00080F83E2001E080F84020006801F01F0105
:1023D000012202FA01F1026AB0F1804F22EA010201
:1023E0000262026A41EA0201016230D01D4988425C
:1023F0001CBF1D4988422AD01C4988421CBF1C4969
:10240000884224D01B49884205D01B4988421ED0EF
:102410001A49884220D1416CB0F1804F41F400410B
:10242000416414D00F4988421CBF0F4988420ED026
:102430000E4988421CBF0E49884208D00D49884287
:102440001CBF0D49884202D00C49884204D18168E2
:1024500001F00701062903D0016841F00101016084
:10246000002070470004004000080040000C0040BD
:1024700000180040000001400040014000040140FD
:102480002DE9F04F9DB0A049884216D09F4988425F
:1024900000F01E819E49884200F021819D498842BA
:1024A00000F024819C49884240F02A81086802217A
:1024B000006821EAD00099491EE19C4C1421206853
:1024C0000130642808BF0020B0FBF1F1206001EB6F
:1024D0008101A0EB810111B9954900220A7095494B
:1024E0000978012901BF94490A8801320A80322102
:1024F000B0FBF1F202FB1101002940F08480322090
:1025000001F0EEF98D4F322087ED000A01F01AFA42
:102510008B4E322086ED000A01F046FADFF8249255
:10252000322089ED000A01F071FADFF81C82874D34
:10253000D7ED000A88ED000A95ED020A01F0BCF81B
:1025400097ED000A95ED021A0146B5EE400AF1EE4C
:1025500010FAB5EE401A08BF0021F1EE10FA18BFCC
:102560000146D6ED000A298095ED030A01F0E4F852
:1025700096ED000A95ED031A0146B5EE400AF1EE1C
:1025800010FAB5EE401A08BF0021F1EE10FA18BF9C
:102590000146D9ED000A698095ED040A01F00CF9B5
:1025A00099ED000A95ED041A0146B5EE400AF1EEE8
:1025B00010FAB5EE401A08BF0021F1EE10FA18BF6C
:1025C0000146D8ED000AA98095ED050A01F034F91D
:1025D00098ED000A95ED051A0346B5EE400AF1EEB6
:1025E00010FAB5EE401A08BF0023F1EE10FA18BF3A
:1025F0000346EB80B5F90000B5F90210B5F90420E7
:1026000001F002FB20686421B0FBF1F202FB110033
:10261000002875D14D4EB06802F0BCF8CDE91B1012
:102620004648006802F0B6F8CDE91910F06802F0EB
:10263000B1F8CDE917104248006802F0ABF81690E7
:1026400030690F4602F0A6F880463E488946006889
:1026500002F0A0F8824670698B4602F09BF80446AF
:1026600039480D46006802F095F841EC100BB6F9B8
:102670000000B6F90210B6F90420B6F90630169E2D
:1026800045EC114B4BEC12AB49EC138B47EC146B44
:10269000DDE9176746EC157BDDE9196714930E92A7
:1026A000089102908DED101B8DED120B8DED0A3B04
:1026B0008DED0C2B26488DED045B8DED064B46EC25
:1026C000167B8DED006BDDE91B32FDF755FE17E043
:1026D00008680221006821EAD00013490CE008686C
:1026E0000221006821EAD0000E4905E008680221B5
:1026F000006821EAD0000A490A68104401380860DD
:102700001DB0BDE8F08F00BFF803002020020020BC
:102710007002002070010020C00200209C000020F8
:1027200098000020940000209000002088040020E1
:102730008000002081000020820000208C04002006
:1027400090040020940400209804002050010020F0
:10275000E44900087047704770470000F8B5044628
:1027600020680168C268456901F02F0602F0200365
:10277000202E05D123B12046BDE8F84000F0A5BECB
:102780005FEA017C08D005F0010E12F4907F8EF014
:10279000010557D1002D55D01140CA06226B3BD5FB
:1027A000012A39D10021009101680091416800910E
:1027B0000099416911F0400F40F0A580A18DE28D94
:1027C000E38D002B00F01981891A89B209B914E14F
:1027D000206850E8030F226820F4907042E8030359
:1027E000002BF5D1206850E8050F226820F0010089
:1027F00042E80503002BF5D1202084F84200002098
:102800002063206850E8030F226820F0100042E89F
:102810000303002BF5D1D5E00A0640F1BA8094F805
:102820004110212940F0E980A168B1F5805F04BF23
:102830002169002900F0D380216A4A1C22620978AC
:102840004160D3E0CE0706D012F480761EBF666CDE
:1028500046F00106666401F00407012686EA970740
:102860002F4302BF676C47F00207676401F002075D
:1028700086EA5706354302BF656C45F0040565647A
:1028800053EA0E0318BF0123BCF1000F05D5012B3D
:1028900002BF636C43F008036364636C002B00F0B9
:1028A000AC801140890603D5204600F00EFE20685A
:1028B0004069616C00F0400001F00801084300F03D
:1028C0008880204600F0DAFD2068416911F0400F51
:1028D00001D16CE0206850E8050F216820F040002D
:1028E00041E80502002AF5D1E06B00285FD0484995
:1028F0000165FEF75AFA002800F07F80E06B016D59
:10290000BDE8F8400847E36B19684D68A28DA9B28D
:10291000002951D091424FD2E585D969B1F5807F28
:1029200001D130E0206850E8030F216820F4807066
:1029300041E80302002AF5D1206850E8050F21681C
:1029400020F0010041E80502002AF5D1206850E896
:10295000050F216820F0400041E80502002AF5D16A
:10296000202084F8420000202063206850E8030FF4
:10297000216820F0100041E80302002AF5D1E06B45
:10298000FEF7D1F9A28D02206063E08D101A81B2AA
:102990001AE0490631D5C16821F04001C16020200C
:1029A00084F841002046BDE8F84000F0EDB820462C
:1029B000BDE8F840FFF7D0BE8A4204BFD869B0F541
:1029C000807F1AD1022060632046BDE8F840FFF7FF
:1029D000C2BE2046FFF7C0FE00206064F8BD216A39
:1029E00031F8022B6FF35F2242602162E18C4FF6D7
:1029F000FF7201391142E18400D0F8BDC16821F0B5
:102A00008001C160C16841F04001C160F8BD00BFF4
:102A10007334000810B504464CB394F8410028B94B
:102A2000002084F84000204600F024F8242084F898
:102A300041002068C16821F40051C160204600F0C7
:102A4000A9FD2068016921F490410161416921F0EB
:102A50002A014161C16841F40051C1600020202178
:102A6000606484F8411084F84210606310BD012056
:102A700010BD00002DE9F04387B0044602A81421E0
:102A8000FDF7F6FC2168314881425CD1002600F553
:102A90007040019679494A6942F010024A614A69D8
:102AA00002F010020192019A01960A6842F00102B6
:102AB0000A60096801F00101019101994FF4C061B8
:102AC00002910221CDE90316032105910721069108
:102AD00002A9FEF7D3FA1E4F1E4D4FF000694021A8
:102AE0004FF4806807F17800C5E9000905F1080096
:102AF00080E8420105F114001421FDF7B9FC2846D5
:102B0000FEF726FA08B1FEF70CF9A563AC63124D87
:102B1000142105F11400C5E90079C5E90266C5F87C
:102B20001080FDF7A5FC2846FEF712FA08B1FEF763
:102B3000F8F8252000210022E563AC63FEF7DEFBF8
:102B40002520FEF7CDFB07B0BDE8F0830010014063
:102B500040640240F0000020C001002010B590F851
:102B60004230202B07D1012431B12AB10024046363
:102B700000F076FD00E00224E0B210BD0148012122
:102B800001707047640500207047FEE7E0B5002043
:102B9000002201903948016841F480010160002160
:102BA000006800F48000019001983A20FEF7A6FB2F
:102BB0003A20FEF795FB462000210022FEF79EFBFF
:102BC0004620BDE88C40FEF78BBB00BF2DE9F041ED
:102BD00086B00026002249F29C55059600962748AB
:102BE000016841F010010160016801F010010091DD
:102BF00000990096016841F004010160016801F04C
:102C00000401009100990096016841F08001016083
:102C1000016801F08001009100990096016841F07F
:102C200001010160016801F0010100910099009625
:102C3000016841F00801016049F29C51006800F010
:102C40000800009000980E4C2046FEF7E4FA01952B
:102C500001AD4FF00108022720462946CDE9028642
:102C60000497FEF70BFAA4F580502946CDE90186BA
:102C70000397FEF703FA06B0BDE8F0813038024052
:102C80000010024080B50948094900227F234FF017
:102C9000FF0C80E80E10C0E904228261FEF7A0FE5E
:102CA00018B1BDE88040FEF73CB880BD900300201D
:102CB0000028004070B596B009AC00251C212046C4
:102CC000CDE91455CDE91255CDE91055FDF7D0FBEE
:102CD00001A82021FDF7CCFB40484149A7224FF431
:102CE0007A73802680E82600C0E90335C0E90556DE
:102CF000FEF772FF08B1FEF714F84FF4805012A9E6
:102D000012903648FFF704F808B1FEF70AF8334886
:102D1000FFF70BFB08B1FEF704F8002010A9CDE97E
:102D200010002E48FEF71AFF08B1FDF7FAFF6020E9
:102D3000142109904FF496700A9004F10800FDF7F1
:102D400097FB264D2146002200262846FFF7A0FAD1
:102D500008B1FDF7E6FF28680422816921F0080127
:102D6000816109A928460A96FFF792FA08B1FDF792
:102D7000D8FF1A4809A90822FFF78AFA08B1FDF717
:102D8000D0FF164809A90C22FFF782FA08B1FDF717
:102D9000C8FF01AC14212046FDF76AFB4FF4005038
:102DA00021460690002008900C48FEF7AFFE08B1BF
:102DB000FDF7B7FF094C0B4D00212046A8472046E0
:102DC0000421A84720460821A84720460C21A847EF
:102DD0002046FFF731FA16B070BD00BFB0030020E7
:102DE000000001408923000810B58CB01B48002466
:102DF0004FF080414FF6FF72CDE90044C0E9001466
:102E00000321C0E9024204618461CDE90314012178
:102E1000CDE90514CDE90744CDE9091403A90B94C4
:102E2000FEF7F2FF08B1FDF77CFFCDE900440B4C43
:102E300069462046FEF792FE08B1FDF772FF204674
:102E40003C21FFF7FDF820686FF001010161C168C6
:102E500041F00101C1600CB010BD00BF7001002045
:102E600010B58CB000241B484FF6FF72CDE900442A
:102E70001949C0E900140321C0E9024204618461D8
:102E80000522CDE903140121CDE90514CDE907247C
:102E9000CDE9091407210B9103A9FEF7B5FF08B18D
:102EA000FDF73FFFCDE900440A4C69462046FEF796
:102EB00055FE08B1FDF735FF20463C21FFF7C0F86D
:102EC00020686FF001010161C16841F00101C1603A
:102ED0000CB010BD200200200004004010B58CB0E2
:102EE00000241B484FF6FF72CDE90044E549C0E9D4
:102EF00000140321C0E90242046184610722CDE984
:102F000003140121CDE90514CDE90724CDE9091405
:102F100003A90B92FEF778FF08B1FDF702FFCDE998
:102F200000440B4C69462046FEF718FE08B1FDF739
:102F3000F8FE20463C21FFF783F820686FF001017E
:102F40000161C16841F00101C1600CB010BD00BF5A
:102F5000700200201CB500249748532240F2E7334A
:102F6000CDE900440B4980E81600C3608461FEF798
:102F700033FE08B1FDF7D5FE8F486946CDE9004420
:102F8000FEF7ECFD08B1FDF7CCFE8B48FEF780FEA6
:102F90001CBD00BF0014004010B58CB000241B48BD
:102FA0004FF6FF72CDE90044F149C0E90014032156
:102FB000C0E90242C0E904448461CDE9031401215F
:102FC000CDE90514CDE90744CDE9091403A90B9413
:102FD000FEF71AFF08B1FDF7A4FECDE900440B4C43
:102FE00069462046FEF7BAFD08B1FDF79AFE204675
:102FF0003C21FFF725F820686FF001010161C168ED
:1030000041F00101C1600CB010BD00BFC002002042
:1030100080B50D480D494FF4E13200234FF00C0C00
:1030200080E80E00C0E90333C0E905C3C361FFF7C0
:10303000F1FC08B1FDF775FE034805490122BDE822
:103040008040FFF78BBD00BF40040020001001400E
:103050009C040020FEE7FEE77047F8B504462068B0
:10306000C16811F0400F1AD1C168002641F08001FB
:10307000C160FEF7D5F8054604270AE010F04000CD
:103080000ED1FEF7CDF8401BB0F57A7F01D96777F6
:1030900001262068F1B20129C068EFD100E00026C6
:1030A000F0B201B0F0BD10B504462068C16821F04F
:1030B0008001C160806810F0200F07D12046FEF724
:1030C000F5FC18B104206077012010BD002010BD70
:1030D0007047FEF7A9B80000B0B592B0002401A86F
:1030E00014210A94CDE90844FDF7C2F900940225A1
:1030F0002048016841F080510160006800F0805074
:103100000090009800941C48016841F480410160DF
:10311000006800F4804000900098092006904FF469
:103120008030079001200B904FF480000C950D909B
:1031300019200E904FF4A870CDE90F0507201190CB
:1031400006A8FEF793FA08B172B6FEE70F20052134
:10315000CDE901054FF4A050039404904FF4805042
:10316000059001A8FEF7A4F908B172B6FEE712B007
:10317000B0BD00BF40380240007000400248016806
:1031800041F470010160704788ED00E00148FEF7EE
:10319000C5BF00BF700100200148FEF7BFBF00BFE0
:1031A000200200200148FEF7B9BF00BF70020020D6
:1031B0000148FEF7B3BF00BFF80300200148FEF747
:1031C000ADBF00BFC0020020D0F800C0B0F1804FFA
:1031D0000ED02B4B98421CBF2A4B984208D02A4B4A
:1031E00098421CBF904B984202D0284B984204D181
:1031F0004B682CF0700243EA020CB0F1804F20D0F3
:103200001F4B98421CBF1F4B98421AD01E4B98422E
:103210001CBF1F4B984214D01E4B98421CBF1E4B24
:1032200098420ED0194B98421CBF7F4B984208D051
:103230001A4B98421CBF1A4B984202D0194B984225
:1032400004D1CB682CF4407243EA020C10B58B68B1
:103250004A69C3620B6883622CF08003724C1A4384
:1032600040F48063A342BDE8104004BF09690163D4
:10327000016841F004010160012141610260704771
:103280000004004000080040000C00400000014025
:1032900000180040001C0040002000400040014099
:1032A0000048014000440140B0B5026A036A23F0BF
:1032B000010322F002020362D0F804E083698D6802
:1032C0000C68154323F07302574B42EA040C40F498
:1032D00080629A4201BF25F00C03CC6824F00404FC
:1032E00044EA0305504B9A4201BFD1E905232EF46D
:1032F0004074224342EA030EC0F804E0C0F818C04C
:10330000496841630562B0BD70B5026A036A23F083
:10331000100322F020020362466883698D680C68FE
:1033200042EA051E23F4E6423F4B42EA042C40F4F5
:1033300080629A4201BFCB686FF04F0404EA031326
:103340002EF0C00508BF43EA050E374B9A4201BF75
:10335000D1E9052326F4406444EA820242EA830666
:103360004660C0F818C049688163C0F820E070BDAD
:103370000004014070B5026A036A23F4807322F4EA
:10338000007203624668C3698D680C6842EA052EC4
:1033900023F07302244B42EA040C40F480629A4208
:1033A00008D1CB6840F2FF442EF440651B02A343D2
:1033B00043EA050E1C4B9A4201BFD1E9052326F4CE
:1033C000405444EA021242EA03164660C0F81CC0A8
:1033D0004968C163C0F820E070BD00BFB0B5D0F847
:1033E00020C0036A23F480532CF400520362436824
:1033F000C5698C68D1F800E042EA043C0A4C25F427
:10340000E64240F4806542EA0E22A54202BF4D69C1
:1034100023F4804343EA85134360C2614968016431
:10342000C0F820C0B0BD00BF00040140D0F820C0EB
:10343000036A23F001030362836923F0F00343EA84
:10344000021282612CF00A02114301627047D0F827
:1034500020C0036A23F010030362836923F47043DE
:1034600043EA023282612CF0A00242EA01110162B9
:103470007047806B0021C185FFF76EB9016851E884
:10348000031F026821F4907142E80313002BF5D169
:10349000016851E8051F026821F0010142E80513A7
:1034A000002BF5D1016B012909D1016851E8031FF7
:1034B000026821F0100142E80313002BF5D120210E
:1034C00080F8421000210163704790F842102229D1
:1034D00018BF70478368B3F5805F06D1026900F1B9
:1034E0002801A2B1D1F800C008E00146002B51F834
:1034F00028CF01D103690BB17F2300E0FF230268CD
:1035000052681A4001238CF800200A6806E003681C
:10351000826A5B686FF35F23138002231A440A6098
:103520004FF6FF72C18D01391142C18500D070473D
:103530000168CA6822F02002CA60CA6822F4807258
:10354000CA604A6922F001024A61202280F84220C2
:1035500000224263036B012B18BFFFF70FBB02630E
:1035600051E8031F026821F0100142E803130168CB
:10357000002BF5D10A6812F0100F08D081B000229C
:1035800000920A68009249680091009901B0818D0B
:10359000FFF7E1B8B0B5044649F20C65206801694F
:1035A000E26821F4405111430161D4F808C0D4E924
:1035B0000423D4F81CE0C16842EA0C02A9431A4370
:1035C00042EA0E021143C1604169A26921F44071CF
:1035D0001143416140F480602049884202D1FEF7E6
:1035E00007F801E0FDF7FAFFE26963681921A0FB23
:1035F0000101B2F5004F16D15A00DB0FFCF745FE72
:1036000064216FF06303B0FBF1F202FB030032238D
:1036100003EBC000B0FBF1F14FF4F87000EA410099
:1036200001F0070113E09A009B0FFCF72EFE6421C6
:103630006FF06303B0FBF1F202FB0300322303EBF4
:103640000010B0FBF1F101F0F00001F00F0100EB10
:103650000210084321688860B0BD00BF001401401B
:10366000816200218285C2854164222180F8421056
:103670000168006918B1C86840F48070C860486982
:1036800040F001004861C86840F02000C860002098
:103690007047000010B5054C2046FFF75FF804495D
:1036A00020460122BDE81040FFF758BA4004002030
:1036B0009C040020FEE700001C4830EE600AB8EED3
:1036C000003A9FED1C5AB0EE404A90ED021A90ED80
:1036D000032AB0F9001001EE034A9FED153A06EEF9
:1036E000101A32EE042A30EE414A22EE032AB8EED6
:1036F000C63A04EE052A32EE032ABDEEC22A12EEC5
:10370000101AB1F57A7F018080ED020A80ED031A6C
:1037100002DB4FF47A7105E0674A0132914202DA26
:103720004FF61841018008B2704700BF1003002017
:10373000000048420000FA431C4830EE600AB8EE30
:10374000003A9FED1C5AB0EE404A90ED041A90EDFD
:10375000052AB0F9021001EE034A9FED153A06EE74
:10376000101A32EE042A30EE414A22EE032AB8EE55
:10377000C63A04EE052A32EE032ABDEEC22A12EE44
:10378000101AB1F57A7F418080ED040A80ED051AA8
:1037900002DB4FF47A7105E0474A0132914202DAC6
:1037A0004FF61841418008B2704700BF1003002057
:1037B000000048420000FA431C4830EE600AB8EEB0
:1037C000003A9FED1C5AB0EE404A90ED061A90ED7B
:1037D000072AB0F9041001EE034A9FED153A06EEF0
:1037E000101A32EE042A30EE414A22EE032AB8EED5
:1037F000C63A04EE052A32EE032ABDEEC22A12EEC4
:10380000101AB1F57A7F818080ED060A80ED071AE3
:1038100002DB4FF47A7105E0274A0132914202DA65
:103820004FF61841818008B2704700BF1003002096
:10383000000048420000FA431C4830EE600AB8EE2F
:10384000003A9FED1C5AB0EE404A90ED081A90EDF8
:10385000092AB0F9061001EE034A9FED153A06EE6B
:10386000101A32EE042A30EE414A22EE032AB8EE54
:10387000C63A04EE052A32EE032ABDEEC22A12EE43
:10388000101AB1F57A7FC18080ED080A80ED091A1F
:1038900002DB4FF47A7105E0074A0132914202DA05
:1038A0004FF61841C18008B2704700BF10030020D6
:1038B000000048420000FA4318FCFFFF7047000078
:1038C00001490860704700BF8C03002003490A6863
:1038D00012F0400FFAD0C2B24A60704700100140A7
:1038E000F8B504461648624D0068406A296800EB46
:1038F0000146F717C5E90867D5E90A01301A67EBF1
:10390000010100F09FFF4FF47A7101EE100AB5EE4D
:10391000002A91FBF4F100EE101AB8EEC00A2861FB
:10392000C5E90A6721EE000AB2EE0A1A20EE020A81
:10393000B3EE0E2A80EE010A80EE020A01B0F0BD5D
:1039400020020020F8B504461648494D0068406A38
:10395000696800EB0146F717C5E90C67D5E90E0168
:10396000301A67EB010100F06DFF4FF47A7101EE40
:10397000100AB5EE002A91FBF4F100EE101AB8EE31
:10398000C00A6861C5E90E6721EE000AB2EE0A1AA4
:1039900020EE020AB3EE0E2A80EE010A80EE020A41
:1039A00001B0F0BD70020020F8B504461648304D55
:1039B0000068406AA96800EB0146F717C5E910677F
:1039C000D5E91201301A67EB010100F03BFF4FF41B
:1039D0007A7101EE100AB5EE002A91FBF4F100EEC7
:1039E000101AB8EEC00AA861C5E9126721EE000AF4
:1039F000B2EE0A1A20EE020AB3EE0E2A80EE010A97
:103A000080EE020A01B0F0BD70010020F8B5044656
:103A10001648174D0068406AE96800EB0146F71741
:103A2000C5E91467D5E91601301A67EB010100F00A
:103A300009FF4FF47A7101EE100AB5EE002A91FBEE
:103A4000F4F100EE101AB8EEC00AE861C5E9166795
:103A500021EE000AB2EE0A1A20EE020AB3EE0E2A96
:103A600080EE010A80EE020A01B0F0BDC002002023
:103A7000900000200000000070B52DED068B484C32
:103A80002078002840F083800125257000F096F80A
:103A9000444A1070517820EA010341408143002BD1
:103AA0009370D170507000D06570628892087C2A43
:103AB00064D808066BD03C4EB6EE008A00206080C9
:103AC000607096ED000A30EE08AA1AEE100A00F0B7
:103AD00061FE9FED310B54EC105B2A46234600F04B
:103AE000A7FE9FED329A0028B0EE490A18BFB0EE4B
:103AF0004A0A86ED000A2E4E96ED000A30EE08AA1C
:103B00001AEE100A00F046FE2A46234600F090FE08
:103B10000028B0EE490A18BFB0EE4A0A86ED000A46
:103B2000244E96ED000A30EE08AA1AEE100A00F0B4
:103B300031FE2A46234600F07BFE0028B0EE490AFB
:103B400018BFB0EE4A0A86ED000A1B4E96ED000A39
:103B500030EE088A18EE100A00F01CFE2A462346B2
:103B600000F066FE002885484FF0640118BFB0EEF3
:103B7000489A86ED009A0068416308E010B10A484F
:103B80000022026008061EBF002060806070BDEC4D
:103B9000068B70BD00BF00BFCDCCCCCCCCCC1440CC
:103BA0008000002068010020580100200000000073
:103BB0005C01002060010020640100200148012117
:103BC000FDF724BB0000024080B5FDF733FBFFF793
:103BD00083FAFEF7FBFFFEF7D9FFFFF753F8FFF775
:103BE00069F8FFF7B7F9FFF73BF9FFF711FAFFF7AD
:103BF00075F9FFF7F9F8FFF7CFF9A820FFF760FE96
:103C0000FFF73AFFFCE700002DE9F0415A4C074668
:103C1000984615460E46012F08DB204680210122DA
:103C2000FDF7F9FA20464FF480710BE0B7F1FF3F42
:103C300068DD20464FF4807100220027FDF7EBFA83
:103C4000204680210022FDF7E6FA012E09DB2046FE
:103C50004FF480610122FDF7DEFA20464FF48051D7
:103C60000CE0B6F1FF3F5BDD20464FF480510022AF
:103C70000026FDF7D0FA20464FF480610022FDF7C0
:103C8000CAFA012D08DB204610210122FDF7C3FAF4
:103C900020464FF400410BE0B5F1FF3F4FDD2046D9
:103CA0004FF4004100220025FDF7B5FA204610210F
:103CB0000022FDF7B0FAB8F1010F07DB204604211E
:103CC0000122FDF7A8FA204608210BE0B8F1FF3FDA
:103CD00043DD2046082100224FF00008FDF79BFA43
:103CE000204604210022FDF796FA244839B20068E4
:103CF000416331B2816329B2C1630FFA88F1016473
:103D0000BDE8F08120464FF480710122BFB2FDF77B
:103D100082FA204680210022FDF77DFA7F4294E757
:103D200020464FF480510122B6B2FDF774FA2046C6
:103D30004FF480610022FDF76EFA7642A1E720463B
:103D40004FF400410122ADB2FDF765FA2046102183
:103D50000022FDF760FA6D42ADE7204608210122FE
:103D60001FFA88F8FDF757FA204604210022FDF7D4
:103D700052FAC8F10008B8E700100240B003002072
:103D80005FEA400C08BF91F0000F4FEA8C234FEA26
:103D9000C12243EA51514FEA1C5018BF00F5F040D0
:103DA0004FEA300018BF41F000415FEA6C5C00F060
:103DB0002980BCF1FF3F08BF40F080407047130CE2
:103DC00006BF12044FF0100C4FF0000C130E04BF8E
:103DD00012020CF1080C130F04BF12010CF1040CB9
:103DE000930F04BF92000CF1020CD30F04BF5200DA
:103DF0000CF1010C11464FF00002A0F11F00A0EBE6
:103E00000C00704711F0004F08BF704731F00041BF
:103E10003FF4D5AF0B0C06BF09044FF0100C4FF068
:103E2000000C0B0E04BF09020CF1080C0B0F04BFB1
:103E300009010CF1040C8B0F04BF89000CF1020C7A
:103E4000CB0F04BF49000CF1010CCCF1200322FA86
:103E500003F341EA030102FA0CF2A0EB0C0000F1BB
:103E60000100704723F07F4720F07F4C80EA030079
:103E700000F00040ACEB070303F57C5303F1FF03B4
:103E80002DE9804909B44FEA144324EA03484FEA74
:103E9000154B25EA0B4E0FF2042606EB13273E784E
:103EA00003FB0667C7F5000707FB06F64FEAD64691
:103EB00006F102064FEA543707FB066CCCF1005CB2
:103EC0004FEA1C472CEA074C0CFB06F507FB06F4EF
:103ED00004EB15464FEA961649085FEA320234BFF2
:103EE00000204FF000404FEAD13706FB07FC4FEAB5
:103EF0001C4C0CFB0BF7D21B03FB0CF761EB07010F
:103F00000CFB0EF7B0EB074072EB17420CFB08F707
:103F100034BFA2EB0742B2EB074261EB17414FEA15
:103F20000C444FEA910706FB07FC4FEA1C4C0CFBC4
:103F30000BF7B0EBC74072EB573203FB0CF734BF03
:103F4000A2EBC742B2EBC74261EB57310CFB0EF755
:103F5000B0EBC70072EB57720CFB08F734BFA2EB53
:103F6000C702B2EBC70261EB57714FEA816141EAC8
:103F700092114FEA826242EA90124FEA806004EBAB
:103F8000CC04039F4FEAD13706FB07FC4FEA1C4CD9
:103F90000CFB0BF7D21B03FB0CF761EB07010CFBCF
:103FA0000EF7B0EB074072EB17420CFB08F734BF7B
:103FB000A2EB0742B2EB074261EB17414FEA8C5587
:103FC00004EB9C244FEA910706FB07FC4FEA1C4CCC
:103FD0000CFB0BF7B0EBC74072EB573203FB0CF74F
:103FE00034BFA2EBC742B2EBC74261EB57310CFBC7
:103FF0000EF7B0EBC70072EB57720CFB08F734BF3B
:10400000A2EBC702B2EBC70261EB57714FEA8161C5
:1040100041EA92114FEA826242EA90124FEA8060CE
:1040200015EB4C2544F100044FEAD13706FB07FCA1
:104030004FEA1C4C0CFB0BF7D21B03FB0CF761EB9C
:1040400007010CFB0EF7B0EB074072EB17420CFBBD
:1040500008F734BFA2EB0742B2EB074261EB17410E
:104060004FEA813141EA92414FEA823242EA90427C
:104070004FEA80304FEA0C7615EB1C1544F1000432
:1040800048EA03434EEA0B484FF0000EB2EB080C2F
:1040900071EB030724BF624639464EEB0E0E4FF01C
:1040A000000B0018524149414BEB0B0BB2EB080CD3
:1040B00071EB03077BF1000B24BF624639464EEBE0
:1040C0000E0E4FF0000B0018524149414BEB0B0B09
:1040D000B2EB080C71EB03077BF1000B24BF6246C7
:1040E00039464EEB0E0E51EA020718BF46F00106A4
:1040F00016EB0E7655F1000254F1000103D5BDE830
:104100008901BDE80088BDE88901BDE80048B6190D
:10411000524141EB0101A3F10103704780807F7E92
:104120007D7C7B7A7978777676757473727171702D
:104130006F6E6E6D6C6C6B6A6A69686867666665DF
:104140006464636362616160605F5F5E5E5D5D5C6D
:104150005C5B5B5A5A5959585857575656555555DE
:104160005454535352525251515050504F4F4F4E3E
:104170004E4D4D4D4C4C4C4B4B4B4A4A4A4949498C
:1041800048484847474747464646454545444444CE
:104190004443434343424242424141419C46002BF7
:1041A00030D477002BD04FEA37071CB503B44FF05B
:1041B00010004FF01001BAF1000F06D0BCF1000F53
:1041C000DCBF40F0080040F008014FF000000FBCD9
:1041D000BDE810400BF1010BBBF1010F08BF5FEA16
:1041E000170722BF12F1010211F101014FF0004146
:1041F00043F1000300F0004043EA00007047F9D3A8
:104200005708D0E746EA06464FEA164613F1400F34
:104210001FDD13F1200FDFBF16430A4600212033B4
:104220005B42BED0C3F1200746EA06464FEA164677
:1042300002FA07F746EA070622FA03F2C3F120075B
:1042400001FA07F742EA070221FA03F14FF00003EF
:10425000A7E746EA020646EA06464FEA164646EA57
:104260000106BCBF46EA0646360C4FF000034FF08D
:1042700000024FF0000194E72DE9804C70B49A469B
:10428000934691E8380007C831EA400C48BF34EA49
:10429000430C03D5FFF7E6FDFFF780FFF0BCBDE858
:1042A000008C2DE9804C70B49A46934691E8380012
:1042B00007C810F0804F08BF13F0804F03D100F003
:1042C00005F8FFF76BFFF0BCBDE8008C20F07F47DE
:1042D00023F07F4C80EA030000F0004007EB0C0362
:1042E000A3F57C53A3F1FE0392F0000F00F0B3801E
:1042F00095F0000F00F077802DE901494FEA114059
:1043000021EA00484FEA144624EA064700FB06FC6F
:1043100008FB06F607FB08F818EB06484CEB164CB2
:1043200000FB07F718EB07484CEB17404FEA124B1E
:1043300022EA0B4E4FEA154625EA06470BFB06FC20
:104340000EFB06F607FB0EFE1EEB064E4CEB164C64
:104350000BFB07F71EEB074E4CEB174B18EB0B084C
:1043600040F1000018EB0E0B58EB000840F1000084
:104370008F1A4FF000014FF000063CBFC943661B87
:1043800014BFB5EB040C00213CBFC943F61B4FEA38
:10439000174427EA04454FEA1C472CEA074C04FB64
:1043A000076205FB07F70CFB05F616EB074642EB29
:1043B000174204FB0CFC16EB0C4642EB1C421BEBB9
:1043C000060658EB020241414EEA8E0E46EA9E0670
:1043D00001D5BDE80189B619524141EB0101A3F1B4
:1043E0000103BDE801894FEA144524EA05464FEA76
:1043F000114721EA074C05FB07F406FB07F70CFB06
:1044000006F111EB074144EB174405FB0CFC11EBE3
:104410000C4144EB1C444FEA124722EA074C05FBCF
:1044200007F206FB07F70CFB06F616EB074642EB16
:10443000174205FB0CFC16EB0C4642EB1C456A18B8
:1044400054F1000148BF7047B619524141EB0101D8
:10445000A3F10103704795F0000F37D04FEA1142E6
:1044600021EA02464FEA144724EA074C02FB07F10F
:1044700006FB07F70CFB06F414EB074441EB17416E
:1044800002FB0CFC14EB0C4441EB1C414FEA1547BA
:1044900025EA074C02FB07F506FB07F70CFB06F6BF
:1044A00016EB074645EB174502FB0CFC16EB0C46DA
:1044B00045EB1C42121951F1000148BF7047B61973
:1044C000524141EB0101A3F1010370474FEA14454A
:1044D00024EA05464FEA114721EA074C05FB07F19C
:1044E00006FB07F70CFB06F212EB074241EB174104
:1044F00005FB0CFC12EB0C4251EB1C414FF000068B
:1045000048BF7047921841EB0101A3F101037047C6
:1045100003B401984100009850EAC12018BF04205C
:104520004A0D18BF40F0010040F2FF72B2EB515F3C
:1045300008BF40F00200012808BF052002B0704704
:1045400010B500290AD00878002807D0054878441B
:10455000FCF77EFB002801D0002010BD0248784403
:1045600010BD00000A05000002050000491058BFF8
:10457000C1F140415B1058BFC3F140438B42EFF3A0
:104580000080704751EA030C17D41CF5801F58BFF8
:10459000BCF5801F00F10680994218BF704708BF24
:1045A0009042704707D711F5801F58BF13F5801F41
:1045B00019D499427047894270471CF5801F08D56D
:1045C000BCF5801FF7D58B4218BF704708BF8242E9
:1045D00070474FF4001C1CEB410F38BF1CEB430F1E
:1045E00001D28B42704770B500F080F892244900E8
:1045F0004FF000514FF08053FFF7B8BF51EA030C62
:1046000017D41CF5801F58BFBCF5801F00F1068031
:10461000994218BF704708BF9042704707D711F5FD
:10462000801F58BF13F5801F19D4994270478942E3
:1046300070471CF5801F08D5BCF5801FF7D58B424D
:1046400018BF704708BF824270474FF4001C1CEB34
:10465000410F38BF1CEB430F01D28B42704770B53E
:1046600000F044F8922449004FF080514FF000537D
:10467000FFF77CBF51EA030C17D41CF5801F58BF0D
:10468000BCF5801F00F10680994218BF704708BF33
:104690009042704707D711F5801F58BF13F5801F50
:1046A00019D499427047894270471CF5801F08D57C
:1046B000BCF5801FF7D58B4218BF704708BF8242F8
:1046C00070474FF4001C1CEB410F38BF1CEB430F2D
:1046D00001D28B42704770B500F008F8922449006F
:1046E0004FF000514FF08053FFF740BF0EF1020E24
:1046F0002EF0030E5EF8046B364205D4012A43EB1C
:10470000030515F5001F12D8012841EB010C1CF51B
:10471000001F0CD80ED14FEAD17C0CEB4C0C0CF1E5
:10472000020C15F5001F08BF4CEBD37C04E04FF0E2
:10473000080C01E04FEAD37C0CEB4C0526FA05F699
:1047400006F00706B6F1040C06D20EEB860CBDE8A7
:1047500070404CF0010C6047DFE80CF0090B0202DE
:104760004FF00041A1F500214FF0000070BD194647
:104770001046012851EB010418BFD4F5001484BF82
:10478000002001F0004170BD0808A0F500114FEABB
:104790003101704743004FEAD30C4FEA3C0C4340D1
:1047A0001FBF40070CF1605113F0FE4F70471CF023
:1047B000006F03D10CF00041002070470CF0004363
:1047C00043EA507040EACC0010B500F068F800BF32
:1047D000000000924FEA0001FFF7D6BF4FF0004102
:1047E000A1F500214FF00000704710B5FFF7CAFE99
:1047F0000CBF0120002010BD10B5FFF7C3FE14BF91
:104800000120002010BD10B5FFF7F8FE8CBF01207D
:10481000002010BD10B5FFF7F1FE2CBF01200020D5
:1048200010BD10B5FFF726FF94BF0120002010BD7A
:1048300010B5FFF71FFF34BF0120002010BD4FF05F
:104840007E5209E011F0004204D54042C1F100015E
:1048500038BF491E42F07E5202F170620B0012BF57
:1048600020235FEA00017047B1FA81FC01FA0CF1E4
:10487000A3EB0C0320FA03FC41EA0C0102EBC35248
:10488000C3F1200310FA03FC5CEA416C42EB1120F7
:1048900018BF5FF0806C28BF20F0010070470EF158
:1048A000020E2EF0030E5EF8044B244204D44FEAAD
:1048B0004102B2F17F4F11D84FEA4003B3F17F4F6D
:1048C0000CD80ED14FEAD07C0CEB4C0C0CF1020C46
:1048D000B2F17F4F08BF4CEBD17C04E04FF0080CE5
:1048E00001E04FEAD17C0CEB4C0324FA03F404F012
:1048F0000704B4F1040C06D20EEB840CBDE81040A2
:104900004CF0010C6047DFE80CF0070802024FF0A2
:104910000040A0F5800010BD0846420018BFD2F14B
:10492000807288BF00F0004010BD4FF04070E1EE93
:10493000100A7047FBF7F9BE02400000000000A01B
:104940000000000005400000000000C8000000005A
:104950000C4000000000409C0000000019400000D6
:104960000020BCBE0000000034400000BFC91B8E08
:1049700000000004B5400000504BCFD06607E2CFE6
:10498000010000006C4100003E8251AADFEEA73416
:1049900001000000D9420000DCB5A0E23A301F97C8
:1049A000FFFFFFFFB4450000FD25A0C8E9A3C14FEC
:1049B000FFFFFFFFFF3F000000000080000000003D
:1049C000FF3F000000000080000000000000000029
:1049D00000000000010203040607080900000000AF
:1049E00001020304256620202020256620202020A7
:1049F0002564202020202020202025662020202023
:104A00002566202020202564202020202020202012
:104A100025662020202025662020202025642020B7
:104A200020202020202025662020202025662020F0
:104A3000202025640D0A0000804A000800000020A4
:104A400020000000C4010008A04A00082000002047
:104A5000480B0000E00100081C00000043000000BB
:104A6000F8FFFFFF0C0000000E0000000F00000028
:104A70002E00000000000000000000000000000008
:104A80000100000001000000100000000000000014
:104A90000024F400000000000000000000000000FE
:040000050800018965
:00000001FF
